{
  "_format": "hh-sol-artifact-1",
  "contractName": "ContractA",
  "sourceName": "contracts/Proxy/contractA.sol",
  "abi": [
    {
      "inputs": [],
      "stateMutability": "nonpayable",
      "type": "constructor"
    },
    {
      "inputs": [
        {
          "internalType": "address",
          "name": "target",
          "type": "address"
        }
      ],
      "name": "AddressEmptyCode",
      "type": "error"
    },
    {
      "inputs": [
        {
          "internalType": "address",
          "name": "implementation",
          "type": "address"
        }
      ],
      "name": "ERC1967InvalidImplementation",
      "type": "error"
    },
    {
      "inputs": [],
      "name": "ERC1967NonPayable",
      "type": "error"
    },
    {
      "inputs": [],
      "name": "FailedInnerCall",
      "type": "error"
    },
    {
      "inputs": [],
      "name": "InvalidInitialization",
      "type": "error"
    },
    {
      "inputs": [],
      "name": "NotInitializing",
      "type": "error"
    },
    {
      "inputs": [
        {
          "internalType": "address",
          "name": "owner",
          "type": "address"
        }
      ],
      "name": "OwnableInvalidOwner",
      "type": "error"
    },
    {
      "inputs": [
        {
          "internalType": "address",
          "name": "account",
          "type": "address"
        }
      ],
      "name": "OwnableUnauthorizedAccount",
      "type": "error"
    },
    {
      "inputs": [],
      "name": "UUPSUnauthorizedCallContext",
      "type": "error"
    },
    {
      "inputs": [
        {
          "internalType": "bytes32",
          "name": "slot",
          "type": "bytes32"
        }
      ],
      "name": "UUPSUnsupportedProxiableUUID",
      "type": "error"
    },
    {
      "anonymous": false,
      "inputs": [
        {
          "indexed": false,
          "internalType": "uint64",
          "name": "version",
          "type": "uint64"
        }
      ],
      "name": "Initialized",
      "type": "event"
    },
    {
      "anonymous": false,
      "inputs": [
        {
          "indexed": true,
          "internalType": "address",
          "name": "previousOwner",
          "type": "address"
        },
        {
          "indexed": true,
          "internalType": "address",
          "name": "newOwner",
          "type": "address"
        }
      ],
      "name": "OwnershipTransferred",
      "type": "event"
    },
    {
      "anonymous": false,
      "inputs": [
        {
          "indexed": true,
          "internalType": "address",
          "name": "implementation",
          "type": "address"
        }
      ],
      "name": "Upgraded",
      "type": "event"
    },
    {
      "inputs": [],
      "name": "UPGRADE_INTERFACE_VERSION",
      "outputs": [
        {
          "internalType": "string",
          "name": "",
          "type": "string"
        }
      ],
      "stateMutability": "view",
      "type": "function"
    },
    {
      "inputs": [],
      "name": "amount",
      "outputs": [
        {
          "internalType": "uint256",
          "name": "",
          "type": "uint256"
        }
      ],
      "stateMutability": "view",
      "type": "function"
    },
    {
      "inputs": [
        {
          "internalType": "uint256",
          "name": "_amount",
          "type": "uint256"
        }
      ],
      "name": "inc",
      "outputs": [
        {
          "internalType": "uint256",
          "name": "",
          "type": "uint256"
        }
      ],
      "stateMutability": "nonpayable",
      "type": "function"
    },
    {
      "inputs": [
        {
          "internalType": "uint256",
          "name": "_amount",
          "type": "uint256"
        }
      ],
      "name": "initialAmount",
      "outputs": [
        {
          "internalType": "uint256",
          "name": "",
          "type": "uint256"
        }
      ],
      "stateMutability": "nonpayable",
      "type": "function"
    },
    {
      "inputs": [],
      "name": "initialize",
      "outputs": [],
      "stateMutability": "nonpayable",
      "type": "function"
    },
    {
      "inputs": [],
      "name": "owner",
      "outputs": [
        {
          "internalType": "address",
          "name": "",
          "type": "address"
        }
      ],
      "stateMutability": "view",
      "type": "function"
    },
    {
      "inputs": [],
      "name": "proxiableUUID",
      "outputs": [
        {
          "internalType": "bytes32",
          "name": "",
          "type": "bytes32"
        }
      ],
      "stateMutability": "view",
      "type": "function"
    },
    {
      "inputs": [],
      "name": "renounceOwnership",
      "outputs": [],
      "stateMutability": "nonpayable",
      "type": "function"
    },
    {
      "inputs": [
        {
          "internalType": "address",
          "name": "newOwner",
          "type": "address"
        }
      ],
      "name": "transferOwnership",
      "outputs": [],
      "stateMutability": "nonpayable",
      "type": "function"
    },
    {
      "inputs": [
        {
          "internalType": "address",
          "name": "newImplementation",
          "type": "address"
        },
        {
          "internalType": "bytes",
          "name": "data",
          "type": "bytes"
        }
      ],
      "name": "upgradeToAndCall",
      "outputs": [],
      "stateMutability": "payable",
      "type": "function"
    }
  ],
  "bytecode": "0x60a06040523073ffffffffffffffffffffffffffffffffffffffff1660809073ffffffffffffffffffffffffffffffffffffffff168152503480156200004457600080fd5b50620000556200005b60201b60201c565b620001cf565b60006200006d6200016560201b60201c565b90508060000160089054906101000a900460ff1615620000b9576040517ff92ee8a900000000000000000000000000000000000000000000000000000000815260040160405180910390fd5b67ffffffffffffffff80168160000160009054906101000a900467ffffffffffffffff1667ffffffffffffffff1614620001625767ffffffffffffffff8160000160006101000a81548167ffffffffffffffff021916908367ffffffffffffffff1602179055507fc7f505b2f371ae2175ee4913f4499e1f2633a7b5936321eed1cdaeb6115181d267ffffffffffffffff604051620001599190620001b2565b60405180910390a15b50565b60007ff0c57e16840df040f15088dc2f81fe391c3923bec73e23a9662efc9c229c6a00905090565b600067ffffffffffffffff82169050919050565b620001ac816200018d565b82525050565b6000602082019050620001c96000830184620001a1565b92915050565b608051611372620001f96000396000818161055c015281816105b1015261076c01526113726000f3fe6080604052600436106100915760003560e01c80638da5cb5b116100595780638da5cb5b146101485780639e5f316114610173578063aa8c217c146101b0578063ad3cb1cc146101db578063f2fde38b1461020657610091565b80634f1ef2861461009657806352d1902d146100b2578063715018a6146100dd578063812600df146100f45780638129fc1c14610131575b600080fd5b6100b060048036038101906100ab9190610f99565b61022f565b005b3480156100be57600080fd5b506100c761024e565b6040516100d4919061100e565b60405180910390f35b3480156100e957600080fd5b506100f2610281565b005b34801561010057600080fd5b5061011b6004803603810190610116919061105f565b610295565b604051610128919061109b565b60405180910390f35b34801561013d57600080fd5b506101466102b4565b005b34801561015457600080fd5b5061015d61044a565b60405161016a91906110c5565b60405180910390f35b34801561017f57600080fd5b5061019a6004803603810190610195919061105f565b610482565b6040516101a7919061109b565b60405180910390f35b3480156101bc57600080fd5b506101c5610495565b6040516101d2919061109b565b60405180910390f35b3480156101e757600080fd5b506101f061049b565b6040516101fd919061115f565b60405180910390f35b34801561021257600080fd5b5061022d60048036038101906102289190611181565b6104d4565b005b61023761055a565b61024082610640565b61024a828261064b565b5050565b600061025861076a565b7f360894a13ba1a3210667c828492db98dca3e2076cc3735a920a3ca505d382bbc60001b905090565b6102896107f1565b6102936000610878565b565b6000600a826102a491906111dd565b6000819055506000549050919050565b60006102be61094f565b905060008160000160089054906101000a900460ff1615905060008260000160009054906101000a900467ffffffffffffffff1690506000808267ffffffffffffffff1614801561030c5750825b9050600060018367ffffffffffffffff16148015610341575060003073ffffffffffffffffffffffffffffffffffffffff163b145b90508115801561034f575080155b15610386576040517ff92ee8a900000000000000000000000000000000000000000000000000000000815260040160405180910390fd5b60018560000160006101000a81548167ffffffffffffffff021916908367ffffffffffffffff16021790555083156103d65760018560000160086101000a81548160ff0219169083151502179055505b6103df33610977565b6103e761098b565b83156104435760008560000160086101000a81548160ff0219169083151502179055507fc7f505b2f371ae2175ee4913f4499e1f2633a7b5936321eed1cdaeb6115181d2600160405161043a919061126a565b60405180910390a15b5050505050565b600080610455610995565b90508060000160009054906101000a900473ffffffffffffffffffffffffffffffffffffffff1691505090565b6000816000819055506000549050919050565b60005481565b6040518060400160405280600581526020017f352e302e3000000000000000000000000000000000000000000000000000000081525081565b6104dc6107f1565b600073ffffffffffffffffffffffffffffffffffffffff168173ffffffffffffffffffffffffffffffffffffffff160361054e5760006040517f1e4fbdf700000000000000000000000000000000000000000000000000000000815260040161054591906110c5565b60405180910390fd5b61055781610878565b50565b7f000000000000000000000000000000000000000000000000000000000000000073ffffffffffffffffffffffffffffffffffffffff163073ffffffffffffffffffffffffffffffffffffffff16148061060757507f000000000000000000000000000000000000000000000000000000000000000073ffffffffffffffffffffffffffffffffffffffff166105ee6109bd565b73ffffffffffffffffffffffffffffffffffffffff1614155b1561063e576040517fe07c8dba00000000000000000000000000000000000000000000000000000000815260040160405180910390fd5b565b6106486107f1565b50565b8173ffffffffffffffffffffffffffffffffffffffff166352d1902d6040518163ffffffff1660e01b8152600401602060405180830381865afa9250505080156106b357506040513d601f19601f820116820180604052508101906106b091906112b1565b60015b6106f457816040517f4c9c8ce30000000000000000000000000000000000000000000000000000000081526004016106eb91906110c5565b60405180910390fd5b7f360894a13ba1a3210667c828492db98dca3e2076cc3735a920a3ca505d382bbc60001b811461075b57806040517faa1d49a4000000000000000000000000000000000000000000000000000000008152600401610752919061100e565b60405180910390fd5b6107658383610a14565b505050565b7f000000000000000000000000000000000000000000000000000000000000000073ffffffffffffffffffffffffffffffffffffffff163073ffffffffffffffffffffffffffffffffffffffff16146107ef576040517fe07c8dba00000000000000000000000000000000000000000000000000000000815260040160405180910390fd5b565b6107f9610a87565b73ffffffffffffffffffffffffffffffffffffffff1661081761044a565b73ffffffffffffffffffffffffffffffffffffffff16146108765761083a610a87565b6040517f118cdaa700000000000000000000000000000000000000000000000000000000815260040161086d91906110c5565b60405180910390fd5b565b6000610882610995565b905060008160000160009054906101000a900473ffffffffffffffffffffffffffffffffffffffff169050828260000160006101000a81548173ffffffffffffffffffffffffffffffffffffffff021916908373ffffffffffffffffffffffffffffffffffffffff1602179055508273ffffffffffffffffffffffffffffffffffffffff168173ffffffffffffffffffffffffffffffffffffffff167f8be0079c531659141344cd1fd0a4f28419497f9722a3daafe3b4186f6b6457e060405160405180910390a3505050565b60007ff0c57e16840df040f15088dc2f81fe391c3923bec73e23a9662efc9c229c6a00905090565b61097f610a8f565b61098881610acf565b50565b610993610a8f565b565b60007f9016d09d72d40fdae2fd8ceac6b6234c7706214fd39c1cd1e609a0528c199300905090565b60006109eb7f360894a13ba1a3210667c828492db98dca3e2076cc3735a920a3ca505d382bbc60001b610b55565b60000160009054906101000a900473ffffffffffffffffffffffffffffffffffffffff16905090565b610a1d82610b5f565b8173ffffffffffffffffffffffffffffffffffffffff167fbc7cd75a20ee27fd9adebab32041f755214dbc6bffa90cc0225b39da2e5c2d3b60405160405180910390a2600081511115610a7a57610a748282610c2c565b50610a83565b610a82610cb0565b5b5050565b600033905090565b610a97610ced565b610acd576040517fd7e6bcf800000000000000000000000000000000000000000000000000000000815260040160405180910390fd5b565b610ad7610a8f565b600073ffffffffffffffffffffffffffffffffffffffff168173ffffffffffffffffffffffffffffffffffffffff1603610b495760006040517f1e4fbdf7000000000000000000000000000000000000000000000000000000008152600401610b4091906110c5565b60405180910390fd5b610b5281610878565b50565b6000819050919050565b60008173ffffffffffffffffffffffffffffffffffffffff163b03610bbb57806040517f4c9c8ce3000000000000000000000000000000000000000000000000000000008152600401610bb291906110c5565b60405180910390fd5b80610be87f360894a13ba1a3210667c828492db98dca3e2076cc3735a920a3ca505d382bbc60001b610b55565b60000160006101000a81548173ffffffffffffffffffffffffffffffffffffffff021916908373ffffffffffffffffffffffffffffffffffffffff16021790555050565b60606000808473ffffffffffffffffffffffffffffffffffffffff1684604051610c569190611325565b600060405180830381855af49150503d8060008114610c91576040519150601f19603f3d011682016040523d82523d6000602084013e610c96565b606091505b5091509150610ca6858383610d0d565b9250505092915050565b6000341115610ceb576040517fb398979f00000000000000000000000000000000000000000000000000000000815260040160405180910390fd5b565b6000610cf761094f565b60000160089054906101000a900460ff16905090565b606082610d2257610d1d82610d9c565b610d94565b60008251148015610d4a575060008473ffffffffffffffffffffffffffffffffffffffff163b145b15610d8c57836040517f9996b315000000000000000000000000000000000000000000000000000000008152600401610d8391906110c5565b60405180910390fd5b819050610d95565b5b9392505050565b600081511115610daf5780518082602001fd5b6040517f1425ea4200000000000000000000000000000000000000000000000000000000815260040160405180910390fd5b6000604051905090565b600080fd5b600080fd5b600073ffffffffffffffffffffffffffffffffffffffff82169050919050565b6000610e2082610df5565b9050919050565b610e3081610e15565b8114610e3b57600080fd5b50565b600081359050610e4d81610e27565b92915050565b600080fd5b600080fd5b6000601f19601f8301169050919050565b7f4e487b7100000000000000000000000000000000000000000000000000000000600052604160045260246000fd5b610ea682610e5d565b810181811067ffffffffffffffff82111715610ec557610ec4610e6e565b5b80604052505050565b6000610ed8610de1565b9050610ee48282610e9d565b919050565b600067ffffffffffffffff821115610f0457610f03610e6e565b5b610f0d82610e5d565b9050602081019050919050565b82818337600083830152505050565b6000610f3c610f3784610ee9565b610ece565b905082815260208101848484011115610f5857610f57610e58565b5b610f63848285610f1a565b509392505050565b600082601f830112610f8057610f7f610e53565b5b8135610f90848260208601610f29565b91505092915050565b60008060408385031215610fb057610faf610deb565b5b6000610fbe85828601610e3e565b925050602083013567ffffffffffffffff811115610fdf57610fde610df0565b5b610feb85828601610f6b565b9150509250929050565b6000819050919050565b61100881610ff5565b82525050565b60006020820190506110236000830184610fff565b92915050565b6000819050919050565b61103c81611029565b811461104757600080fd5b50565b60008135905061105981611033565b92915050565b60006020828403121561107557611074610deb565b5b60006110838482850161104a565b91505092915050565b61109581611029565b82525050565b60006020820190506110b0600083018461108c565b92915050565b6110bf81610e15565b82525050565b60006020820190506110da60008301846110b6565b92915050565b600081519050919050565b600082825260208201905092915050565b60005b8381101561111a5780820151818401526020810190506110ff565b60008484015250505050565b6000611131826110e0565b61113b81856110eb565b935061114b8185602086016110fc565b61115481610e5d565b840191505092915050565b600060208201905081810360008301526111798184611126565b905092915050565b60006020828403121561119757611196610deb565b5b60006111a584828501610e3e565b91505092915050565b7f4e487b7100000000000000000000000000000000000000000000000000000000600052601160045260246000fd5b60006111e882611029565b91506111f383611029565b925082820190508082111561120b5761120a6111ae565b5b92915050565b6000819050919050565b600067ffffffffffffffff82169050919050565b6000819050919050565b600061125461124f61124a84611211565b61122f565b61121b565b9050919050565b61126481611239565b82525050565b600060208201905061127f600083018461125b565b92915050565b61128e81610ff5565b811461129957600080fd5b50565b6000815190506112ab81611285565b92915050565b6000602082840312156112c7576112c6610deb565b5b60006112d58482850161129c565b91505092915050565b600081519050919050565b600081905092915050565b60006112ff826112de565b61130981856112e9565b93506113198185602086016110fc565b80840191505092915050565b600061133182846112f4565b91508190509291505056fea2646970667358221220a2532699fad78a8eb2a8e7781ee3b42d376784e7a02b46570c1fbaa69a5d427364736f6c63430008180033",
  "linkReferences": {},
  "deployedLinkReferences": {}
}